:020000040800F2
:10000000480400204501000815110008CD10000823
:1000100011110008450A0008B91500080000000089
:100020000000000000000000000000004512000871
:10003000D10E00080000000017110008311300085D
:100040005F0100085F0100085F0100085F01000810
:100050005F0100085F010008ED0E00085F01000865
:100060005F0100085F0100081D0F00085F01000824
:100070005F0100085F010008490A00085F010008ED
:100080005F0100085F0100085F0100085F010008D0
:100090005F0100085F0100085F0100085F010008C0
:1000A0005F0100085F0100085F0100085F010008B0
:1000B0005F0100085F0100085F0100085F010008A0
:1000C0005F0100085F0100085F0100085F01000890
:1000D0005F0100085F0100085F0100085F01000880
:1000E0005F0100085F0100085F0100085F01000870
:1000F0005F0100085F0100085F0100085F01000860
:100100005F0100085F0100085F0100085F0100084F
:100110005F0100085F0100085F0100085F0100083F
:100120005F0100085F0100085F0100085F0100082F
:10013000DFF80CD000F012FB00480047B51E0008A5
:10014000480400200648804706480047FEE7FEE7CF
:10015000FEE7FEE7FEE7FEE7FEE7FEE7FEE7FEE777
:10016000A5130008310100082DE9FE4F804681EA01
:100170000300C00F0C46009021F0004123F0004521
:10018000B8EB0200A94105D24046214690461C46E4
:100190000B46024623F00040104347D0270DC7F31B
:1001A0000A00C3F30A510290401A019040286BDA0A
:1001B000C3F3130040F4801B0098924620B1002343
:1001C000D2EB030A63EB0B0B01985946C0F14002D6
:1001D000504600F0DEF906460D4650465946019A53
:1001E00000F0E6F910EB08006141002487EA1152A3
:1001F00084EAE7731A4340D0009A62B3019A012A55
:100200004FEA075215DC001B61EB02014FF0004280
:1002100002EA0752CDE90042001C41F58011324646
:100220002B4600F01DFA03B0BDE8F08F4046214692
:10023000F9E7001B61EB0201001C41F58013001877
:100240005B412018A2F5001747EB030140EAD57087
:10025000B6196D4111E06D084FEA360645EAC075E2
:100260004FEA0752001B61EB0201001C41F58011AF
:1002700049084FEA30000019514132462B4603B07D
:10028000BDE8F04F00F0DDB90098012240000023E6
:10029000D0EB020263EBE073009821464FEAE07472
:1002A000B8EB000061EB0401E9E783F000435BE792
:1002B00081F0004158E72DE9FE4F81EA030404F084
:1002C000004421F0004100944FF0000B23F0004364
:1002D00050EA01045ED052EA03045BD0C3F30A542F
:1002E000C1F30A552C44A4F2F3340194A0FB025448
:1002F000C1F3130141F48011C3F3130343F48013DA
:1003000001FB024400FB034E840A970A44EA81542D
:1003100047EA8357A4FB076802958D0A05FB07850A
:100320004FEA932C04FB0C542705029D4FEA065814
:1003300047EA1637B5EB08056EEB070C870E920EF1
:1003400047EA811742EA8312A7FB0201B6EB0B01D1
:1003500064EB00042B0D43EA0C335E1844EB1C5095
:10036000DA465146E7FB0201C5F313044FEA0B33AB
:1003700043EA14534FEA0432019C43EA0603A4F112
:100380000C040294009CCDE900B400F069F903B0BC
:10039000BDE8F08F00200146F9E72DE9F04D81EA34
:1003A000030404F0004B21F0004514464FF0000A0E
:1003B00023F0004150EA050220D054EA01021DD08A
:1003C000C5F30A570246C5F31303C1F31300C1F383
:1003D0000A5640F4801543F48013A7EB0608101B5F
:1003E000D64608F2FD3873EB050002D308F1010888
:1003F00001E092185B41B8F1000F03DA00200146DA
:10040000BDE8F08D00204FF48011064684460EE0D2
:10041000171B73EB050705D3121B63EB050306439C
:100420004CEA010C49084FEA300092185B4150EA4F
:100430000107EDD152EA030012D082EA040083EAF8
:100440000501084305D0101BAB4106D20122002351
:1004500006E000224FF0004302E06FF0010253106B
:100460001AEB06004CEB085110EB0A0041EB0B01B4
:10047000BDE8F04D00F0E5B80EB540F23341029111
:100480000021CDE900110A460B4600F0E9F803B05F
:1004900000BD00F0004230F000400AD0C10D01F56F
:1004A0006071C0F3160042EA0151C20840071143CF
:1004B000704700200146704701F0004330B421F03E
:1004C000004150EA010206D00A0DA2F56072C1F3A4
:1004D0001301002A02DC30BC00207047440F44EABC
:1004E000C104C100E01830BC00EBC25000F072B88B
:1004F000002801DBC0F10040002901DBC1F100410F
:100500008142704730B50B4601460020202201246D
:1005100009E021FA02F59D4205D303FA02F5491BD1
:1005200004FA02F52844151EA2F10102F1DC30BDE7
:100530002DE9F05F0546002092469B468846064618
:10054000814640241BE0284641464746224600F0AB
:1005500017F953465A46C01A914110D3114618460E
:10056000224600F016F82D1A67EB01084F46224686
:100570000120002100F00DF817EB00094E41201E6C
:10058000A4F10104DFDC484631462A464346BDE873
:10059000F09F202A04DB203A00FA02F10020704785
:1005A0009140C2F1200320FA03F3194390407047B1
:1005B000202A06DBCB17203A41FA02F043EAE07327
:1005C00006E041FA02F3D040C2F120029140084314
:1005D000194670470029A8BF7047401C490008BF52
:1005E00020F00100704710B4B0FA80FC00FA0CF063
:1005F00050EA010404BF10BC704749B1CCF120049B
:1006000021FA04F411FA0CF118BF01212143084327
:10061000A3EB0C01CB1D4FEA00614FEA102042BF53
:10062000002010BC704700EBC35010440029A4BF49
:1006300010BC7047401C490008BF20F0010010BCEE
:10064000704710B5141E73F1000408DA401C41F124
:10065000000192185B411A4301D120F0010010BD46
:100660002DE9F04D92469B4611B1B1FA81F202E0BC
:10067000B0FA80F220329046FFF78BFF04460F4617
:1006800040EA0A0041EA0B0153465A46084313D098
:10069000114653EA010019D0C8F14002504600F05B
:1006A0006FF805460E46504659464246FFF771FF21
:1006B000084305D0012004E020463946BDE8F08D0E
:1006C0000020054346EAE0762C4337430A98630549
:1006D000E40AA0EB08000022FD0A44EA47540A306D
:1006E00002D500200146E9E7010510196941DDE95D
:1006F000084500196941BDE8F04DA2E7C1F30A526F
:10070000C1F3130140F2FF3341F480119A4202DA3F
:1007100000200146704740F233439A42A2F233422E
:1007200002DC524200F02CB8FFF733BF30B5041E94
:1007300071F1000404DB4FF00044404264EB01011E
:10074000141E73F1000405DB1C464FF000435242B7
:1007500063EB0403994208BF904230BD064C074D3D
:1007600006E0E06840F0010394E807009847103481
:10077000AC42F6D3FFF7E0FC8C200008AC20000868
:10078000202A04DB203A21FA02F00021704721FAE6
:1007900002F3D040C2F1200291400843194670474D
:1007A00010B50121084600F0C3FC0121480200F009
:1007B000CFFC10BD00B591B0344800F077F9344853
:1007C00006903448079000200890012009900020EE
:1007D0000A900B904FF480700C9080000D902020B8
:1007E0000E9000020F900020109006A9274800F0FC
:1007F00019FA0121254800F04DF90020019001204F
:100800008DF808008DF809004FF460200390002057
:10081000049001208DF8140001A91D484C3800F007
:1008200065F84FF4404000F077FC072301221021C7
:1008300017484C3800F082F8012000F0F1F801214F
:1008400013484C3800F033F8012111484C3800F0BF
:1008500023F80F484C3800F0CDF800BF0C484C3856
:1008600000F03AF80028F9D109484C3800F0D2F8E5
:1008700000BF07484C3800F025F80028F9D10121C5
:1008800003484C3800F0BBF811B000BD080002402E
:100890004C2401403000002021B1826842F0010266
:1008A000826003E0826822F001028260704721B119
:1008B000826842F48072826003E0826822F480726F
:1008C00082607047014600208A6802F004020AB183
:1008D000012000E000207047014600208A6802F0F5
:1008E00008020AB1012000E00020704730B502463E
:1008F0000020002350680F4C20400D790C6844EA1A
:1009000005242043506090680B4C2040D1E90254EC
:100910002C434D7944EA450420439060D06A20F48A
:1009200070000C7C641EE4B2234340EA0350D062A2
:1009300030BD0000FFFEF0FFFDF7F1FFF0B504460B
:100940000D4600200021092D11DDE068A5F10A0601
:1009500006EB4607072606FA07F18843A5F10A06C3
:1009600006EB460603FA06F10843E0600CE0206956
:1009700005EB4507072606FA07F1884305EB450610
:1009800003FA06F108432061072A0FDA606B561E4E
:1009900006EB86071F2606FA07F18843561E06EB6C
:1009A000860605FA06F10843606322E00D2A0FDA95
:1009B000206BD61F06EB86071F2606FA07F1884331
:1009C000D61F06EB860605FA06F10843206310E001
:1009D000E06AA2F10D0606EB86071F2606FA07F16C
:1009E0008843A2F10D0606EB860605FA06F10843D8
:1009F000E062F0BD816841F008018160704721B17B
:100A0000826842F4A002826003E0826822F4A002BD
:100A100082607047816841F0040181607047000086
:100A200030B10749096841F40001054A116005E049
:100A30000349096821F40001014A11607047000070
:100A40000824014000BFFEE710B54FF4005000F04D
:100A5000D3F801280BD12021054800F030FB2021DC
:100A6000044800F02AFB4FF4005000F005F810BDD8
:100A700000180140000C014000F0805111B1034901
:100A8000086001E002494860704700000404024029
:100A90000000024021B1026842F00102026004E05D
:100AA00002684FF6FE731A400260704701684FF605
:100AB000FE72114001600021016041608160C160EF
:100AC0004B49884208D14A490839496841F00F0129
:100AD000474A083A51608AE045491431884208D1B2
:100AE00043490839496841F0F001414A083A5160E8
:100AF0007DE03F492831884208D13D49083949689D
:100B000041F470613A4A083A516070E038493C312A
:100B1000884208D136490839496841F47041344A5D
:100B2000083A516063E032495031884208D1304977
:100B30000839496841F470212D4A083A516056E05D
:100B40002B496431884208D129490839496841F460
:100B50007001274A083A516049E0254978318842B6
:100B600008D123490839496841F07061204A083AA0
:100B700051603CE01F49884206D1011F096841F0DD
:100B80000F01021F116032E01A491431884208D166
:100B90001849091F096841F0F001164A121F116037
:100BA00025E014492831884208D11249091F0968F3
:100BB00041F470610F4A121F116018E00D493C3179
:100BC000884208D10B49091F096841F47041094A5C
:100BD000121F11600BE007495031884207D10549C7
:100BE000091F096841F47021024A121F1160704701
:100BF000080002400804024001460020002201F0E3
:100C0000805313B1054B1A6801E0054B1A6802EADC
:100C100001030BB1012000E00020704700040240F6
:100C20000000024010B50022026847F6F0739A43B4
:100C30000C6A8B6823430C6923434C6923438C69FA
:100C40002343CC6923434C6A23438C6A23431A43CE
:100C50000260CB6843600B6883604B68C36010BD63
:100C600010B5002400F06AF804E0601CC4B2012052
:100C700000F030F94FF400610F4800F00CFA08B1B1
:100C8000C82CF2DBC82C01DB012010BD002404E0DD
:100C9000601CC4B2012000F01DF94FF40061064849
:100CA00000F0F9F908B9F02CF2DBF02C01DB01209F
:100CB000EBE70020E9E70000002001402DE9F05FAC
:100CC00000F0C8F800F0AEF8FFF7CAFFCC2000F043
:100CD000CDF8BE2000F0CAF800F092F8834600F08C
:100CE0008FF8824654460BEB042084B204F478401B
:100CF000B0F5784F0FD1E043401C84B22046FFF797
:100D0000BBFB074600220B4BFFF7D5FA0546FFF762
:100D1000D3FB81460BE02046FFF7AEFB05460022E1
:100D2000054BFFF7C8FA0746FFF7C6FB8146484662
:100D3000BDE8F09F0000B0BF0000B03F08B54FF421
:100D40000060ADF8000048208DF8030069460248B5
:100D500000F016F908BD00000020014008B54FF46E
:100D60000060ADF8000003208DF8020010208DF81F
:100D700003006946014800F003F908BD0020014066
:100D800008B50121080200F0E3F94FF40060ADF866
:100D9000000003208DF8020010208DF80300694642
:100DA000034800F0EDF800F03DF8FFF759FF08BDEB
:100DB0000020014010B5FFF7D1FF4FF400610F484C
:100DC00000F07BF9022000F085F84FF400610B4839
:100DD00000F075F9FFF7B2FF0C2000F07BF84FF43C
:100DE0000061064800F057F908B1012400E0002432
:100DF000322000F06FF8204610BD000000200140B6
:100E000070B50026012508E0FFF7D4FF0446E00195
:100E100040EA6600C6B2681CC5B2082DF4DD304653
:100E200070BD000010B5FFF799FF4FF4006108484E
:100E300000F043F940F2EE2000F04CF84FF400616E
:100E4000034800F03CF90F2000F044F810BD00000A
:100E50000020014010B5FFF7E5FFFFF701FFCC20B0
:100E600000F004F8442000F001F810BD70B504460D
:100E7000FFF774FF012526E004F00106641086B137
:100E80004FF40061114800F018F9022000F022F838
:100E90004FF400610D4800F012F93C2000F01AF800
:100EA0000FE04FF40061094800F007F93C2000F022
:100EB00011F84FF40061054800F001F9022000F03C
:100EC00009F8681CC5B2082DD6DD70BD00200140B0
:100ED0007047000001B504490098086000BF02484F
:100EE00000680028FBD108BD2800002010B50120B3
:100EF00000F032F870B12021074800F0D5F8C0F1B9
:100F00000100C4B222462021034800F0DAF8012093
:100F100000F01CF810BD00000018014010B51020B2
:100F200000F01AF870B12021074800F0BDF8C0F1B8
:100F30000100C4B222462021034800F0C2F810206C
:100F400000F004F810BD00000018014001490860DD
:100F50007047000014040140014600200022074BA6
:100F60001B6803EA0102054B14331B680B4013B1E5
:100F70000AB1012000E00020704700000004014099
:100F80002DE9F04102460025002600200023002420
:100F9000002791F803C00CF00F0591F803C00CF086
:100FA000100CBCF1000F03D091F802C04CEA05050B
:100FB00091F800C0BCF1000F31D0146800202BE084
:100FC0004FF0010C0CFA00F3B1F800C00CEA030674
:100FD0009E4220D183004FF00F0C0CFA03F7BC4364
:100FE00005FA03FC4CEA040491F803C0BCF1280F95
:100FF00006D14FF0010C0CFA00FCC2F814C00AE054
:1010000091F803C0BCF1480F05D14FF0010C0CFA68
:1010100000FCC2F810C0401C0828D1D31460B1F8FD
:1010200000C0BCF1FF0F34DD546800202EE000F159
:10103000080C4FF0010808FA0CF3B1F800C00CEAF4
:1010400003069E4221D183004FF00F0C0CFA03F7E8
:10105000BC4305FA03FC4CEA040491F803C0BCF15C
:10106000280F05D100F1080C08FA0CF8C2F814801A
:1010700091F803C0BCF1480F07D100F1080C4FF004
:10108000010808FA0CF8C2F81080401C0828CED3DA
:101090005460BDE8F0810246002093680B400BB11C
:1010A000012000E00020704702460020D3680B407A
:1010B0000BB1012000E000207047416170470161E1
:1010C00070470AB1016100E04161704700BFFEE76F
:1010D00008B50121082000F03BF80121402000F074
:1010E00037F82020ADF8000003208DF80200102012
:1010F0008DF8030069460448FFF742FF694603483C
:10110000FFF73EFF08BD0000000C01400018014041
:1011100000BFFEE77047704701460020034A506851
:1011200020F4404008435060704700000010024027
:1011300029B1064A52690243044B5A6104E0034A4A
:1011400052698243014B5A6170470000001002400F
:1011500029B1064A92690243044B9A6104E0034AAA
:1011600092698243014B9A6170470000001002406F
:1011700030B500210022002400232D4D6D6805F0BC
:101180000C0121B1042905D0082923D105E0294DFE
:10119000056022E0274D05601FE0254D6D6805F4D0
:1011A0007012234D6D6805F48034022505EB9242E0
:1011B0001CB9214D554305600BE01D4D6D6805F4CC
:1011C00000351DB11C4D5543056002E0194D5543D6
:1011D000056002E0174D056000BF00BF144D6D684B
:1011E00005F0F0010909154D6B5C0568DD404560AF
:1011F0000F4D6D6805F4E061090A104D6B5C4568A0
:10120000DD4085600A4D6D6805F46051C90A0B4DDB
:101210006B5C4568DD40C560054D6D6805F4404177
:10122000890B074D6B5CC568B5FBF3F5056130BDF7
:101230000010024000127A0000093D00000000206A
:1012400010000020704710B500F002F810BD00003B
:101250000CB50020019000903348006840F48030C5
:101260003149086000BF3048006800F40030009049
:101270000198401C0190009818B90198B0F5A06F32
:10128000F1D12948006800F4003010B1012000902D
:1012900001E0002000900098012843D12348006815
:1012A00040F01000214908600846006820F0030063
:1012B00008600846006840F0020008601A4840686C
:1012C000194948600846406848600846406840F44C
:1012D000806048600846406820F47C1048600846FA
:1012E000406840F4E81048600846006840F08070AC
:1012F000086000BF0C48006800F000700028F9D0BA
:101300000948406820F003000749486008464068E3
:1013100040F00200486000BF0348406800F00C0045
:101320000828F9D10CBD0000001002400020024046
:1013300010B500F06DF810BD30B516480068164ABB
:10134000B0FBF2F1B1F1807F01D301201DE021F06B
:101350007F40401E4FF0E022506150170F220028BE
:1013600007DA13071D0E0D4B00F00F04241F1D5547
:1013700003E013071C0E0A4B1C5400BF00204FF063
:10138000E022906107201061002008B100BFFEE755
:1013900030BD00001400002040420F0018ED00E0B6
:1013A00000E400E010B51348006840F00100114966
:1013B000086008464068104908400E4948600846E1
:1013C00000680E4908400B4908600846006820F490
:1013D000802008600846406820F4FE0048604FF412
:1013E0001F008860FFF72FFF4FF00060044908607E
:1013F00010BD0000001002400000FFF8FFFFF6FEE5
:1014000008ED00E010B5FFF7CBF9FFF7D3F910BDF9
:101410000448006820B103480068401E0149086084
:10142000704700002800002000B585B0012144F27B
:101430000400FFF78DFE4FF40070ADF81000182087
:101440008DF8130003208DF8120004A91348FFF74C
:1014500097FD4FF48060ADF8100004208DF8130064
:1014600004A90E48FFF78CFD4FF4E13000900020F6
:10147000ADF80400ADF80600ADF80800ADF80C00BA
:101480000C20ADF80A006946054800F025F8012156
:10149000034800F007F805B000BD00000008014057
:1014A0000038014021B1828942F40052828104E077
:1014B00082894DF6FF731A408281704702460020F0
:1014C000B1F5007F00D100BF13880B400BB10120A4
:1014D00000E00020704700002DE9F04786B0054687
:1014E0000E460024A24600BFA1460027B08900B1E5
:1014F00000BF2F462C8A4CF6FF700440F08804434E
:101500002C82AC894EF6F3100440B0883189084330
:10151000718908430443AC81AC8A4FF6FF40044014
:10152000B0890443AC8201A8FFF722FE1F4887421E
:1015300002D1DDF810A001E0DDF80CA0A88900F4CC
:10154000004040B10AEBCA0000EB0A1031684900C4
:10155000B0FBF1F807E00AEBCA0000EB0A103168B3
:101560008900B0FBF1F86420B8FBF0F00401200919
:10157000642101FB1089A88900F4004040B13220A9
:1015800000EBC900B0FBF1F000F00700044308E0F5
:10159000322000EB09106421B0FBF1F000F00F00E5
:1015A00004432C8106B0BDE8F087000000380140FC
:1015B000C1F308028280704700BFFEE70FB4054BFD
:1015C00010B503A9044A029800F0CAF810BC5DF8EF
:1015D00014FB0000911E00084000002002E008C833
:1015E000121F08C1002AFAD170477047002001E09D
:1015F00001C1121F002AFBD1704700002DE9FF5FD7
:10160000DDE90220010DDDF838B0024318D044F6C0
:101610001050A1F2FF3141430D140F98012820D042
:10162000A5EB0B00401C5FEA000A4FF00004474E98
:10163000DFF81C91A046504616D5CAF1000728E0F5
:101640000F98012443A2012808D0002100980F9B85
:10165000C0E90021C0E90243BDE8FF9F6FEA0B012A
:10166000F4E7CBF10000DEE7074612E0F80707D009
:101670002246334640464946FEF71DFE80468946CF
:101680002246334610461946FEF715FE04460E461E
:101690007F10002FEAD1DDE90201BAF1000F4246C6
:1016A0004B4602DAFEF707FE01E0FEF776FE04463F
:1016B0000E460022284BFFF739F803D84FF0FF30D1
:1016C000014607E00022254B20463146FEF74CFD3F
:1016D000FFF714F8102409E0002C0ADB0A2200238B
:1016E000FEF726FF019B30321A55641E50EA0102B4
:1016F000F2D1641C019AC4F1110314440F9A012A17
:1017000003D0012208430DD10AE0084304D0002091
:101710004FF0110B0F9080E7A3EB0B056D1E0DE052
:101720005B4504DD4FF0000205F1010504E003DA3A
:101730004FF00002A5F10105002AECD000980F99A6
:10174000C0E90231C0E9004586E7000000002440FE
:101750000000F03F300000000000F0430000E03FD8
:101760002DE9FF4F95B09B468946064600250FE2BE
:10177000252877D100242746F84A0121059400E066
:10178000044316F8013F203B01FA03F01042F7D161
:1017900030782A2811D06FF02F033078A0F1300272
:1017A000092A16D8059A44F0020402EB820203EBE0
:1017B00042021044761C0590EFE759F8042B05927D
:1017C000002A03DA504244F40054059044F0020425
:1017D000761C30782E2816D116F8010F44F0040438
:1017E0002A280DD06FF02F023078A0F13003092B9A
:1017F00009D807EB870302EB4303C718761CF3E70E
:1018000059F8047B761C30786C280FD006DC4C2805
:1018100017D068280DD06A2814D104E0742810D09D
:101820007A280FD10DE044F400140AE044F4801447
:1018300001E044F440147278824202D104F580142D
:10184000761C761C307866280BD013DC582877D0AD
:1018500009DC002875D04528F6D04628F4D0472862
:101860001AD19DE118E0632835D0642879D0652825
:1018700012D195E1702873D008DC6728F1D069286F
:101880006FD06E280DD06F2806D1B5E073282CD00C
:10189000752875D0782874D05A46179990476D1CD2
:1018A00075E1C4F30250022809D003280DD0D9F8FD
:1018B000001004280DD00D6009F1040967E1D9F882
:1018C0000010EA17C1E90052F6E7D9F800100D80C0
:1018D000F2E70D70F0E719F8041B8DF800100020F6
:1018E0008DF80100EA46012003E059F804AB4FF0FF
:1018F000FF3061074FF0000102D40DE008F1010153
:101900008846B9420FDA8045F8DB1AF8081000293A
:10191000F4D108E008F1010188468142FADB1AF8A7
:1019200008100029F6D105985B46A0EB0807214670
:101930003846179A00F094FA284400EB080507E0AF
:101940004DE029E10DE01AF8010B5A46179990472E
:10195000B8F10108F7D25B4621463846179A13E1E1
:1019600042E00A220092C4F302524FF0000A022A17
:1019700008D059F804CB032A4FEAEC710AD00DE0E5
:1019800029E02AE009F1070121F00702F2E802C18B
:10199000914609E00FFA8CFC4FEAEC71042A03D15E
:1019A0004FFA8CFC4FEAEC71002907DA0A46002155
:1019B000DCF1000C61EB02012D2202E0220504D5CE
:1019C0002B228DF80420012203E0E20701D020221F
:1019D000F7E7904659E00A2102E010220DE01021BD
:1019E0004FF0000A00910BE010224FF0000A44F083
:1019F00004040827009203E008224FF0000A009236
:101A0000C4F30252022A05D059F804CB0021032A5C
:101A100008D009E009F1070121F00702F2E802C14C
:101A2000914605E01FFA8CFC042A01D10CF0FF0C52
:101A30004FF00008220728D5702806D0009B83F0BD
:101A4000100353EA0A0305D00EE040228DF804206B
:101A5000012208E05CEA010206D030228DF8042061
:101A60008DF8050002229046009B83F0080353EA9C
:101A70000A030AD15CEA010201D1620705D53022CE
:101A80008DF804204FF001087F1E582804D034A0A0
:101A900003900EA802900DE036A0F9E75346604689
:101AA000009AFEF745FD84460398825C0298401E2A
:101AB000029002705CEA0100F0D1029806A9081AAF
:101AC00000F1200A600702D524F4803400E00127E9
:101AD000574502DDA7EB0A0000E0002000EB0A01F9
:101AE000009005984144401A0590E00306D45B46F7
:101AF0002146179A059800F0B3F90544002706E03F
:101B000001A85A46C05D179990476D1C7F1C474538
:101B1000F6DBE0030CD55B462146179A059800F0EA
:101B20009FF9054404E030205A46179990476D1CF0
:101B30000099481E00900029F5DC08E002980299FF
:101B40005A460078491C0291179990476D1CBAF1CA
:101B50000001AAF1010AF1DC65E100000928010099
:101B60003031323334353637383961626364656613
:101B700000000000303132333435363738394142D5
:101B8000434445460000000000F058F90544761C27
:101B9000307800287FF4ECAD19B02846BDE8F08F0E
:101BA000620700D4062709F1070222F0070CFCE8BF
:101BB0000223E14603F000485FEA080C02D00FF26E
:101BC000702C0DE05FEA045C02D50FF2682C07E090
:101BD0005FEAC47C02D00FF2602C01E0AFF2700C1F
:101BE0004FF0FF3823F00043CDF850C065280CD0EB
:101BF00006DC452809D046281DD047283DD13DE0C8
:101C0000662818D067287ED138E00021112F01DB2B
:101C1000112000E0781CCDE9000106A90EA8FFF70D
:101C2000EDFCDDE90F010E9A03910021009207F10E
:101C3000010A04914DE04FF000400097CDE90110FA
:101C400006A90EA8FFF7DAFCDDE90F0203920E9B4E
:101C500011990022DDF80CA00093049211B9791CAF
:101C600000EB010AB7EB0A0004D4C0F1FF3007F122
:101C7000010A0490AAEB0700019044E0012F00DA6A
:101C800001270021112F01DD112000E03846CDE9A8
:101C9000000106A90EA8FFF7B1FCDDE90F010E9ABD
:101CA0000391002104910092BA4621070CD40399B4
:101CB000514500DA8A46BAF1010F05DD009AAAF112
:101CC0000101515C302908D0B84202DA10F1040F4A
:101CD00006DA0121CDE9011015E0AAF10101E9E7D9
:101CE000002805DC049901440491AAEB000102E0FC
:101CF000411C514500DD8A460499401A401C019060
:101D00004FF000400290200704D40198504501DBB9
:101D1000CDF8048000208DF84F0002980DF14F0798
:101D2000B0F1004F25D02B200E9002984FF0020802
:101D300000280CDA404202902D200E9007E00A2184
:101D40000298FEF7DFFB3031029007F8011DB8F171
:101D50000001A8F10108F2DC02980028EFD1791EF9
:101D60000E980870307800F0200040F0450007F829
:101D7000020D12A8C01B00F107081498007800B1EA
:101D8000012000EB0A01019801EBE0710598414444
:101D9000401A401E0590E00306D45B462146179A80
:101DA000059800F05DF805441498007818B15A467B
:101DB000179990476D1CE00324D55B462146179A7E
:101DC000059800F04DF805441CE00498002807DB56
:101DD000DDE90301884203DD0098405C179901E0CA
:101DE000179930205A469047049805F10105401C88
:101DF00004900198401E019004D12E205A46179954
:101E000090476D1CBAF10001AAF1010ADDDC05E082
:101E100017F8010B5A46179990476D1CB8F100014D
:101E2000A8F10108F4DC5B462146179A0598ABE659
:101E30002D0000002B000000200000002DE9F041E3
:101E4000044600251E461746880404D405E039469A
:101E50002020B0476D1C641EF9D52846BDE8F081EE
:101E60002DE9F041044600251E469046C80301D5E1
:101E7000302700E02027880404D505E04146384695
:101E8000B0476D1C641EF9D52846BDE8F0810000FE
:101E900070B504460D46E1B20548FFF789FB00BF67
:101EA00040210348FFF70AFB0128F9D1204670BD05
:101EB0000038014086B0FFF7B7FAFFF7A3FAFFF743
:101EC0003BFAFFF705F920213348FFF7F8F8202106
:101ED0003248FFF7F4F832A0FFF770FB05E038A0B6
:101EE000FFF76CFB3D48FEF7F5FFFEF749FF0028C2
:101EF000F5D13BA0FFF762FB4DE0FEF7DFFE04905B
:101F000000210498FEF7F4FA09D20498FEF7C1FA0A
:101F1000044622460B4639A0FFF750FB08E0049820
:101F2000FEF7B7FA044622460B463BA0FFF746FBF6
:101F300040480088FEF7A0FA80464FF066323E4BDC
:101F4000FEF7B9F9064600223C4BFEF726FA3C4A5A
:101F50003C4BCDE90001FEF7ABF900223A4BCDE94D
:101F60000201FEF7A8F904464FF03332374BFEF773
:101F700014FA82460022364BFEF7F6F8354A03C2C1
:101F800034480CC834A0FFF719FB39A0FFF716FB43
:101F90001248FEF79FFFB0E700180140000C014017
:101FA0000D0A202D2D2D2D4453313842323020B2D0
:101FB000E2CEC2B2E2CAD42D2D2D2D200D0A000092
:101FC0000D0A2053746174653A204453313842320B
:101FD00030206572726F72200D0A000020A1070088
:101FE0000D0A2053746174653A20445331384232EB
:101FF00030206E6F726D616C200D0A000D0A204D4D
:102000006561737572656420543A2D20252E326601
:10201000A1E6200D0A0000000D0A204D65617375D0
:1020200072656420543A20252E3266A1E6200D0AFE
:10203000000000003000002066660A400000B0404A
:10204000E17A14AE47E1F63F00408F403333114050
:1020500000003740380000200D0A205265616C20D6
:10206000543D20252E326620A1E6200D0A000000F6
:102070000D0A202D2D2D2D2D2D2D2D2D2D2D2D2DE0
:102080002D2D2D2D2D2D2D2D200D0A00AC200008DD
:102090000000002044000000DC150008F0200008CB
:1020A0004400002004040000EC15000800000000BB
:1020B00001020304010203040607080902040608DA
:1020C00000A24A0400000000000000000102030416
:1020D00006070809000000000000000000000000E2
:1020E00000000000000000000000000000000000F0
:0400000508000145A9
:00000001FF
