:020000040800F2
:1000000090060020B50900082D0300082F03000802
:100010003103000833030008350300080000000026
:10002000000000000000000000000000370300088E
:1000300039030008000000003B0300083D030008EE
:10004000CF090008CF090008CF090008CF09000830
:10005000CF090008CF090008CF090008CF09000820
:10006000CF090008CF090008CF090008CF09000810
:10007000CF090008CF090008CF090008CF09000800
:10008000CF090008CF090008CF090008CF090008F0
:10009000CF090008CF090008CF090008CF090008E0
:1000A000CF090008CF090008CF090008CF090008D0
:1000B000CF090008CF090008CF090008CF090008C0
:1000C000CF090008CF090008CF090008CF090008B0
:1000D000CF090008CF090008CF090008CF090008A0
:1000E000CF090008CF090008CF090008CF09000890
:1000F000CF090008CF090008CF090008CF09000880
:10010000CF090008CF090008CF090008CF0900086F
:10011000CF090008CF090008CF090008CF0900085F
:10012000CF090008CF090008CF090008CF0900084F
:1001300000F002F800F03AF80AA090E8000C8244BF
:100140008344AAF10107DA4501D100F02FF8AFF29C
:10015000090EBAE80F0013F0010F18BFFB1A43F0A5
:1001600001031847F8090000180A0000103A24BFDC
:1001700078C878C1FAD8520724BF30C830C144BF0C
:1001800004680C607047000000230024002500264E
:10019000103A28BF78C1FBD8520728BF30C148BFEA
:1001A0000B6070471FB51FBD10B510BD00F09FFC60
:1001B0001146FFF7F7FF00F009F800F0BDFC03B4AB
:1001C000FFF7F2FF03BC00F0C1FC000000F012FCDE
:1001D00000F060FC00F02EFCDFF84081504C514EE6
:1001E00042F210791021204600F057F9C0B9484674
:1001F00000F037FC1021204600F04FF980B91021A3
:10020000204600F04AF90028F9D02021204600F0CD
:100210004EF9C0F10100C2B22021204600F055F98C
:100220000821204600F039F9C0B9484600F019FC11
:100230000821204600F031F980B90821204600F05D
:100240002CF90028F9D02021304600F030F9C0F117
:100250000100C2B22021304600F037F904212046C7
:1002600000F01BF918BB484600F0FBFB04212046B8
:1002700000F013F9D8B90421204600F00EF9002847
:10028000F9D02021204600F012F9C0F10100C2B2DD
:100290002021204600F019F92021304600F007F90E
:1002A000C0F10100C2B22021304600F00EF9012158
:1002B0004546404600F0F1F8002893D0484600F04B
:1002C000D0FB0121284600F0E8F800288AD001215F
:1002D000284600F0E2F80028F9D1134F002520212C
:1002E000204600F0E4F8C0F10100C2B2202120460F
:1002F00000F0EBF82021304600F0D9F8C0F1010001
:10030000C2B22021304600F0E0F8384600F0A9FBE8
:100310006D1CEDB20A2DE2D364E700000008014035
:1003200000180140000C0140A08601007047FEE764
:10033000FEE7FEE7FEE770477047704700F099BBA5
:100340008F4910B5884206D10121042000F048FAF7
:10035000002104203BE08B49884206D1012108207E
:1003600000F03EFA0021082031E08749884206D19A
:100370000121102000F034FA0021102027E08349E9
:10038000884206D10121202000F02AFA00212020F5
:100390001DE07F49884206D10121402000F020FA6B
:1003A0000021402013E07B49884206D101218020B2
:1003B00000F016FA0021802009E0774988420AD12E
:1003C00084150121204600F00BFA00212046BDE8EB
:1003D000104000F005BA10BD10B50121084600F02C
:1003E000FFF90021BDE81040012000F0F9B9F0B597
:1003F000CA78002502F00F03D20601D58A7813438C
:100400000C784FF00F0E0122E4B104680F8802FA55
:1004100005F63740B74211D14FEA850C0EFA0CF7BA
:1004200024EA070703FA0CF43C43CF78282F02D0C4
:10043000482F02D002E0466100E006616D1C082DE5
:10044000E4D304600C88FF2C1ED944685FF00006DA
:1004500006F1080702FA07F50F882F40AF420FD1C7
:100460004FEA860C0EFA0CF7BC4303FA0CF73C4338
:10047000CF78282F00D14561CF78482F00D1056172
:10048000761C082EE4D34460F0BD4FF6FF71018066
:10049000022181700421C1707047024600209268D9
:1004A0000A4200D001207047806880B2704702463F
:1004B0000020D2680A4200D001207047C06880B294
:1004C000704701617047416170470AB1016170472F
:1004D00041617047C160704741F48032826181613F
:1004E00082618169806970472C4B10B51A684FF69C
:1004F0008074224042EA00100843186010BD284969
:10050000C8617047F0B5254C002801DAE36900E0C6
:100510006368420D120185B2C0F301579540C0F3E4
:100520000346032F05D0C2020AD50322B2409343EB
:1005300007E023F07062636823F07063636002E099
:10054000AB4343F0706201B12A43002801DAE26153
:10055000F0BD6260F0BD10B58A0721F003040F49B9
:10056000130F21440F228C689A4094438C608A6850
:10057000984002438A6010BD0949DC310860704729
:1005800000080140000C014000100140001401402F
:1005900000180140001C0140002001400000014003
:1005A00000002042A548016841F001010160416856
:1005B000A34A114041600168A24A114001600168EC
:1005C00021F480210160416821F4FE0141604FF473
:1005D0001F018160704799490A6822F480320A60DD
:1005E0000A6822F480220A60B0F5803F07D0B0F597
:1005F000802F03D1086840F4A02008607047086885
:1006000040F48030F9E70246002053098B49012B62
:100610000AD0022B0AD0496A02F01F02012393403C
:100620000B4200D0012070470968F5E7096AF3E73B
:1006300018B500204FF4A06400903120FFF7E3FFCD
:100640000099491C0091A14201D00028F5D0312029
:10065000FFF7D9FF002800D0012018BD77490A68AC
:1006600022F0F80242EAC00008607047764908604C
:100670007047724A5368084323F47C131843506050
:1006800070477149086670476C4A516821F0030150
:100690000143516070476948406800F00C007047A2
:1006A000664A516821F0F001014351607047634A86
:1006B000516821F4E0610143516070475F494A6825
:1006C00022F4605242EAC000486070475B4A002949
:1006D000517A01D0014300E08143517270475A4979
:1006E000D83108607047554A516821F440410143B0
:1006F000516070475149002281F8202081F8202064
:10070000012802D0042802D1052081F8200070477A
:100710004E490860704749490A6A02430A627047B5
:100720004A4944390860704730B544494A6812F074
:100730000C03474A03D0042B01D0082B22D00260BF
:100740004A680F23434C03EA1212A35C0268DA40A2
:1007500042604B68072505EA1323E35C22FA03F3A2
:1007600083604B6805EAD323E35C22FA03F2C2609C
:100770004968032303EA9131231F595CB2FBF1F16D
:10078000016130BD4A684B6802F470124FF00204F8
:1007900013F4803F04EB924202D04B689B0301D5D7
:1007A0002D4B00E02A4B5A43C9E7244A00295169DE
:1007B00001D0014300E08143516170471F4A002985
:1007C000916901D0014300E08143916170471B4A68
:1007D0000029D16901D0014300E08143D161704714
:1007E000164A0029D16801D0014300E08143D1605D
:1007F0007047124A0029116901D0014300E081438A
:100800001161704711494039086070470E49C8644A
:1008100070470A49C87170470848416A41F08071C1
:1008200041627047054A0146002092680A4200D0A2
:100830000120704701498872704700000010024093
:100840000000FFF8FFFFF6FE000042428004424233
:1008500000127A000400002000093D000CB50021C0
:100860004C4801910091026842F4803202604FF4DA
:10087000A063026802F400320092019A521C0192B5
:10088000009A12B9019A9A42F3D10268920333D5C1
:100890000121009140490A6842F010020A600A688A
:1008A00022F003020A600A6842F002020A6041680C
:1008B000416041684160416841F480614160416844
:1008C00021F47C114160416841F4E8114160016804
:1008D00041F08071016001688901FCD5416821F017
:1008E00003014160416841F0020141604168C1F388
:1008F00081010229FAD10CBD00910CBD254810B52B
:10090000016841F0010101604168244A11404160E1
:100910000168234A11400160016821F480210160CF
:10092000416821F4FE0141604FF41F018160FFF72F
:1009300095FF1C494FF00060086010BD154910B5C7
:100940004868194A10F00C03184803D0042B01D052
:10095000082B0BD002604968144AC1F30311121D21
:10096000515C026822FA01F2026010BD4A684B68CD
:1009700002F470124FF0020413F4803F04EB924231
:1009800002D04B689B0301D5094B00E0064B5A434C
:10099000E0E7000000100240002002400000FFF8E5
:1009A000FFFFF6FE08ED00E000127A0014000020C0
:1009B00000093D000948804709480047FEE7FEE777
:1009C000FEE7FEE7FEE7FEE7FEE7FEE7FEE7FEE7FF
:1009D00004480549054A064B70470000FD08000819
:1009E00031010008900000209006002090020020B5
:1009F0009002002008B501210820FFF7DFFE012149
:100A00004020FFF7DBFE2020ADF8000003208DF82A
:100A1000020010208DF8030069460448FFF7E7FC48
:100A200069460348FFF7E3FC08BD0000000C0140E5
:100A300000180140134814490068B0FBF1F0B0F110
:100A4000807F0DD220F07F414FF0E020491E4161B0
:100A50000E4AF02111700021816107210161704768
:100A6000FEE701B50A480099016001680029FCD140
:100A700008BD07480168002902D00168491E0160CD
:100A8000704700001400002040420F0023ED00E0FA
:100A90002800002038B501210820FFF78FFE012132
:100AA0000420FFF78BFE01214020FFF787FE1C206A
:100AB000ADF8000001248DF8024048208DF80300B5
:100AC00069460748FFF793FCADF800408DF80240F7
:100AD00028208DF8030069460248FFF788FC38BDDE
:100AE0000018014000080140704770477047754684
:100AF00000F028F8AE4605006946534620F007008E
:100B0000854618B020B5FFF763FFBDE820404FF0E1
:100B100000064FF000074FF000084FF0000B21F0E7
:100B20000701AC46ACE8C009ACE8C009ACE8C009B4
:100B3000ACE8C0098D4670470446AFF300802046FC
:100B4000FFF73DFB004870472C00002001491820AA
:100B5000ABBEFEE726000200704700007C0B0008D9
:100B6000000000202C0000006C010008A80B000809
:100B70002C0000206406000088010008020406081A
:100B80000000000001020304010203040607080933
:100B900000A24A040000000000000000010203045B
:080BA00006070809000000002F
:0400000508000131BD
:00000001FF
